{
  "address": "0xad44641ead15B657752A8B70E5C79888ed94bd0d",
  "abi": [
    {
      "inputs": [
        {
          "internalType": "address",
          "name": "token",
          "type": "address"
        },
        {
          "internalType": "address[]",
          "name": "addresses",
          "type": "address[]"
        },
        {
          "internalType": "uint256[]",
          "name": "amounts",
          "type": "uint256[]"
        }
      ],
      "name": "bulkSend",
      "outputs": [],
      "stateMutability": "nonpayable",
      "type": "function"
    }
  ],
  "transactionHash": "0x56ed24f892543d8034787c20bc7f39f2a8749c1f64d1f1700008b77b3b64247b",
  "args": [],
  "solcInputHash": "a04182b6b74b2082c9f5a5fd932eea8b",
  "bytecode": "0x608060405234801561001057600080fd5b506102f7806100206000396000f3fe608060405234801561001057600080fd5b506004361061002b5760003560e01c8063259c276e14610030575b600080fd5b61004361003e3660046101fc565b610045565b005b82811461005157600080fd5b8260005b8181101561016c57866001600160a01b03166323b872dd3388888581811061008d57634e487b7160e01b600052603260045260246000fd5b90506020020160208101906100a291906101db565b8787868181106100c257634e487b7160e01b600052603260045260246000fd5b6040516001600160e01b031960e088901b1681526001600160a01b03958616600482015294909316602485015250602090910201356044820152606401602060405180830381600087803b15801561011957600080fd5b505af115801561012d573d6000803e3d6000fd5b505050506040513d601f19601f82011682018060405250810190610151919061027a565b61015a57600080fd5b806101648161029a565b915050610055565b50505050505050565b80356001600160a01b038116811461018c57600080fd5b919050565b60008083601f8401126101a2578182fd5b50813567ffffffffffffffff8111156101b9578182fd5b6020830191508360208260051b85010111156101d457600080fd5b9250929050565b6000602082840312156101ec578081fd5b6101f582610175565b9392505050565b600080600080600060608688031215610213578081fd5b61021c86610175565b9450602086013567ffffffffffffffff80821115610238578283fd5b61024489838a01610191565b9096509450604088013591508082111561025c578283fd5b5061026988828901610191565b969995985093965092949392505050565b60006020828403121561028b578081fd5b815180151581146101f5578182fd5b60006000198214156102ba57634e487b7160e01b81526011600452602481fd5b506001019056fea26469706673582212203742b0440844ae8a29a8158e838c891c2d8840a22ab06542c5e73fbc7a7c66d764736f6c63430008040033",
  "devdoc": {
    "kind": "dev",
    "methods": {},
    "version": 1
  },
  "userdoc": {
    "kind": "user",
    "methods": {},
    "version": 1
  },
  "storageLayout": {
    "storage": [],
    "types": null
  }
}